S018000047534D206874747020726571756573742E737265631C
S11300000C9434000C9449000C9449000C9449005D
S11300100C9449000C9449000C9449000C94490038
S11300200C9449000C9449000C9449000C94490028
S11300300C9449000C9449000C9449000C94490018
S11300400C9449000C9449000C9449000C94490008
S11300500C9449000C9449000C9449000C944900F8
S11300600C9449000C94490011241FBECFEFD8E032
S1130070DEBFCDBF12E0A0E0B1E0ECEAF1E002C0E7
S113008005900D92AC31B107D9F70E9462000C942F
S1130090D4000C940000E0ECF0E0908195FFFDCFDB
S11300A08093C6000895CF93DF93EC018881882361
S11300B031F021960E944B0089918111FBCFDF9191
S11300C0CF91089580E091E00E9453002FEF84E3E4
S11300D09CE0215080409040E1F700C0000080E2A5
S11300E091E00E9453002FEF84E39CE02150804074
S11300F09040E1F700C000008BE391E00E945300C0
S11301002FEF89E698E1215080409040E1F700C04C
S113011000002FEF81E19AE7215080409040E1F701
S113012000C000008BE491E00E9453002FEF84E3B1
S11301309CE0215080409040E1F700C0000089E538
S113014091E00E9453002FEF84E39CE02150804013
S11301509040E1F700C000008FE691E00E94530058
S11301602FEF84E39CE0215080409040E1F700C0F1
S113017000008BEF91E00E9453002FEF84E39CE09A
S1130180215080409040E1F700C000008DE092E0F3
S11301900E9453002FEF84E39CE021508040904064
S10F01A0E1F700C00000B5CFF894FFCFD9
S11301AC41542B53415042523D332C312C22436F3A
S11301BC6E74797065222C2247505253220D0A001A
S11301CC41542B53415042523D332C312C2241503B
S11301DC4E222C22777777220D0A0041542B53415F
S11301EC504252203D312C310D0A0041542B4854BD
S11301FC5450494E49540D0A0041542B4854545000
S113020C504152413D22434944222C310D0A0041B4
S113021C542B48545450504152413D2255524C2277
S113022C2C22687474703A2F2F676F6F726D2D7453
S113023C6573742D636F6E7461696E65722D707263
S113024C7365732E72756E2E676F6F726D2E696F78
S113025C2F6C6F636174696F6E2F4750524D432C32
S113026C3037353035342E3639312C412C3533304A
S113027C312E3638302C4E2C30303835332E393331
S113028C362C452C2C2C3232303731392C30303042
S113029C2E302C572A3733220D0A0041542B485444
S11302AC5450414354494F4E3D300D0A0041542B98
S10F02BC485454505445524D0D0A0000A3
S9030000FC
